{
  "_format": "hh-sol-artifact-1",
  "contractName": "Library",
  "sourceName": "contracts/Library.sol",
  "abi": [
    {
      "anonymous": false,
      "inputs": [
        {
          "indexed": true,
          "internalType": "address",
          "name": "previousOwner",
          "type": "address"
        },
        {
          "indexed": true,
          "internalType": "address",
          "name": "newOwner",
          "type": "address"
        }
      ],
      "name": "OwnershipTransferred",
      "type": "event"
    },
    {
      "inputs": [
        {
          "internalType": "string",
          "name": "bookName",
          "type": "string"
        },
        {
          "internalType": "uint256",
          "name": "quantity",
          "type": "uint256"
        }
      ],
      "name": "AddBook",
      "outputs": [],
      "stateMutability": "nonpayable",
      "type": "function"
    },
    {
      "inputs": [
        {
          "internalType": "uint256",
          "name": "bookId",
          "type": "uint256"
        }
      ],
      "name": "BorrowBook",
      "outputs": [],
      "stateMutability": "nonpayable",
      "type": "function"
    },
    {
      "inputs": [
        {
          "internalType": "uint256",
          "name": "bookId",
          "type": "uint256"
        }
      ],
      "name": "BorrowHistory",
      "outputs": [
        {
          "internalType": "address[]",
          "name": "",
          "type": "address[]"
        }
      ],
      "stateMutability": "view",
      "type": "function"
    },
    {
      "inputs": [],
      "name": "GetLibraryArchive",
      "outputs": [
        {
          "components": [
            {
              "internalType": "uint256",
              "name": "id",
              "type": "uint256"
            },
            {
              "internalType": "string",
              "name": "name",
              "type": "string"
            },
            {
              "internalType": "uint256",
              "name": "quantity",
              "type": "uint256"
            },
            {
              "internalType": "bool",
              "name": "exists",
              "type": "bool"
            }
          ],
          "internalType": "struct Library.Book[]",
          "name": "",
          "type": "tuple[]"
        }
      ],
      "stateMutability": "view",
      "type": "function"
    },
    {
      "inputs": [
        {
          "internalType": "uint256",
          "name": "",
          "type": "uint256"
        }
      ],
      "name": "LibraryArchive",
      "outputs": [
        {
          "internalType": "uint256",
          "name": "id",
          "type": "uint256"
        },
        {
          "internalType": "string",
          "name": "name",
          "type": "string"
        },
        {
          "internalType": "uint256",
          "name": "quantity",
          "type": "uint256"
        },
        {
          "internalType": "bool",
          "name": "exists",
          "type": "bool"
        }
      ],
      "stateMutability": "view",
      "type": "function"
    },
    {
      "inputs": [
        {
          "internalType": "uint256",
          "name": "bookId",
          "type": "uint256"
        }
      ],
      "name": "ReturnBook",
      "outputs": [],
      "stateMutability": "nonpayable",
      "type": "function"
    },
    {
      "inputs": [],
      "name": "owner",
      "outputs": [
        {
          "internalType": "address",
          "name": "",
          "type": "address"
        }
      ],
      "stateMutability": "view",
      "type": "function"
    },
    {
      "inputs": [],
      "name": "renounceOwnership",
      "outputs": [],
      "stateMutability": "nonpayable",
      "type": "function"
    },
    {
      "inputs": [
        {
          "internalType": "address",
          "name": "newOwner",
          "type": "address"
        }
      ],
      "name": "transferOwnership",
      "outputs": [],
      "stateMutability": "nonpayable",
      "type": "function"
    }
  ],
  "bytecode": "0x6080604052604051610010906100b8565b604051809103906000f08015801561002c573d6000803e3d6000fd5b50600180546001600160a01b0319166001600160a01b039290921691909117905534801561005957600080fd5b5061006333610068565b6100c5565b600080546001600160a01b038381166001600160a01b0319831681178455604051919092169283917f8be0079c531659141344cd1fd0a4f28419497f9722a3daafe3b4186f6b6457e09190a35050565b6105048061141c83390190565b611348806100d46000396000f3fe608060405234801561001057600080fd5b50600436106100935760003560e01c80638da5cb5b116100665780638da5cb5b146100f65780639649faa314610111578063b8dd17db14610124578063e7e58ee914610137578063f2fde38b1461015757600080fd5b8063265be2e21461009857806327e4671c146100ad578063715018a6146100d9578063801bd18c146100e1575b600080fd5b6100ab6100a6366004610eae565b61016a565b005b6100c06100bb366004610f21565b6103e4565b6040516100d0949392919061124d565b60405180910390f35b6100ab6104ac565b6100e96104e2565b6040516100d09190611056565b6000546040516001600160a01b0390911681526020016100d0565b6100ab61011f366004610f21565b6105fc565b6100ab610132366004610f21565b6108cb565b61014a610145366004610f21565b610a55565b6040516100d09190611009565b6100ab610165366004610e60565b610af7565b6000546001600160a01b0316331461019d5760405162461bcd60e51b815260040161019490611191565b60405180910390fd5b6101a78383610b92565b806101c6575060025460009081526004602052604090206003015460ff165b156102135760405162461bcd60e51b815260206004820181905260248201527f5468697320626f6f6b2065786973747320696e20746865206c696272617279216044820152606401610194565b60018110156102645760405162461bcd60e51b815260206004820152601f60248201527f5175616e746974792063616e6e6f74206265206c657373207468616e203121006044820152606401610194565b61029160405180608001604052806000815260200160608152602001600081526020016000151581525090565b6002548152604080516020601f86018190048102820181019092528481529085908590819084018382808284376000920182905250602080870195865260408088018990526001606089018190526002548452600483529220875181559551805188979650610307955092860193500190610dc7565b50604082015160028201556060909101516003918201805460ff1916911515919091179055805460018101825560009190915281517fc2575a0e9e593c00f959f8c92f12db2869c3395a3b0502d05e2516446f71f85b6004909202918201908155602080840151805185946103a2937fc2575a0e9e593c00f959f8c92f12db2869c3395a3b0502d05e2516446f71f85c909101920190610dc7565b5060408201516002828101919091556060909201516003909101805460ff191691151591909117905580549060006103d9836112e1565b919050555050505050565b600381815481106103f457600080fd5b60009182526020909120600490910201805460018201805491935090610419906112ac565b80601f0160208091040260200160405190810160405280929190818152602001828054610445906112ac565b80156104925780601f1061046757610100808354040283529160200191610492565b820191906000526020600020905b81548152906001019060200180831161047557829003601f168201915b50505050600283015460039093015491929160ff16905084565b6000546001600160a01b031633146104d65760405162461bcd60e51b815260040161019490611191565b6104e06000610c86565b565b60606003805480602002602001604051908101604052809291908181526020016000905b828210156105f3578382906000526020600020906004020160405180608001604052908160008201548152602001600182018054610543906112ac565b80601f016020809104026020016040519081016040528092919081815260200182805461056f906112ac565b80156105bc5780601f10610591576101008083540402835291602001916105bc565b820191906000526020600020905b81548152906001019060200180831161059f57829003601f168201915b5050509183525050600282015460208083019190915260039092015460ff1615156040909101529082526001929092019101610506565b50505050905090565b600081815260046020526040902060030154819060ff1661062f5760405162461bcd60e51b8152600401610194906111c6565b6000828152600460205260409020600201546106995760405162461bcd60e51b8152602060048201526024808201527f5468697320626f6f6b206973206f7574206f662073746f636b2063757272656e604482015263746c792160e01b6064820152608401610194565b60015433600090815260066020526040908190209051632292254360e11b81526001600160a01b03909216916345244a86916106da918691906004016111fd565b60206040518083038186803b1580156106f257600080fd5b505afa158015610706573d6000803e3d6000fd5b505050506040513d601f19601f8201168201806040525081019061072a9190610e8e565b156107825760405162461bcd60e51b815260206004820152602260248201527f596f7527766520616c726561647920626f72726f776564207468617420626f6f6044820152616b2160f01b6064820152608401610194565b3360008181526006602090815260408083208054600180820183559185528385200187905554868452600590925291829020915163023e4a0760e31b81526001600160a01b03909116926311f25038926107de92600401610fad565b60206040518083038186803b1580156107f657600080fd5b505afa15801561080a573d6000803e3d6000fd5b505050506040513d601f19601f8201168201806040525081019061082e9190610e8e565b6108615760008281526005602090815260408220805460018101825590835291200180546001600160a01b031916331790555b600082815260046020526040812060020180549161087e83611295565b9190505550600382815481106108a457634e487b7160e01b600052603260045260246000fd5b6000918252602082206002600490920201018054916108c283611295565b91905055505050565b600081815260046020526040902060030154819060ff166108fe5760405162461bcd60e51b8152600401610194906111c6565b60015433600090815260066020526040908190209051632292254360e11b81526001600160a01b03909216916345244a869161093f918691906004016111fd565b60206040518083038186803b15801561095757600080fd5b505afa15801561096b573d6000803e3d6000fd5b505050506040513d601f19601f8201168201806040525081019061098f9190610e8e565b6109db5760405162461bcd60e51b815260206004820152601e60248201527f596f7520686176656e7420626f72726f776564207468617420626f6f6b2100006044820152606401610194565b3360009081526006602052604090206109f49083610cd6565b6000828152600460205260408120600201805491610a11836112e1565b919050555060038281548110610a3757634e487b7160e01b600052603260045260246000fd5b6000918252602082206002600490920201018054916108c2836112e1565b600081815260046020526040902060030154606090829060ff16610a8b5760405162461bcd60e51b8152600401610194906111c6565b60008381526005602090815260409182902080548351818402810184019094528084529091830182828015610ae957602002820191906000526020600020905b81546001600160a01b03168152600190910190602001808311610acb575b505050505091505b50919050565b6000546001600160a01b03163314610b215760405162461bcd60e51b815260040161019490611191565b6001600160a01b038116610b865760405162461bcd60e51b815260206004820152602660248201527f4f776e61626c653a206e6577206f776e657220697320746865207a65726f206160448201526564647265737360d01b6064820152608401610194565b610b8f81610c86565b50565b6000805b600354811015610c7a57600154600380546001600160a01b039092169163bed34bba919084908110610bd857634e487b7160e01b600052603260045260246000fd5b906000526020600020906004020160010186866040518463ffffffff1660e01b8152600401610c09939291906110d4565b60206040518083038186803b158015610c2157600080fd5b505afa158015610c35573d6000803e3d6000fd5b505050506040513d601f19601f82011682018060405250810190610c599190610e8e565b15610c68576001915050610c80565b80610c72816112e1565b915050610b96565b50600090505b92915050565b600080546001600160a01b038381166001600160a01b0319831681178455604051919092169283917f8be0079c531659141344cd1fd0a4f28419497f9722a3daafe3b4186f6b6457e09190a35050565b60005b8254811015610dc257828181548110610d0257634e487b7160e01b600052603260045260246000fd5b9060005260206000200154821415610db05782548390610d249060019061127e565b81548110610d4257634e487b7160e01b600052603260045260246000fd5b9060005260206000200154838281548110610d6d57634e487b7160e01b600052603260045260246000fd5b906000526020600020018190555082805480610d9957634e487b7160e01b600052603160045260246000fd5b600190038181906000526020600020016000905590555b80610dba816112e1565b915050610cd9565b505050565b828054610dd3906112ac565b90600052602060002090601f016020900481019282610df55760008555610e3b565b82601f10610e0e57805160ff1916838001178555610e3b565b82800160010185558215610e3b579182015b82811115610e3b578251825591602001919060010190610e20565b50610e47929150610e4b565b5090565b5b80821115610e475760008155600101610e4c565b600060208284031215610e71578081fd5b81356001600160a01b0381168114610e87578182fd5b9392505050565b600060208284031215610e9f578081fd5b81518015158114610e87578182fd5b600080600060408486031215610ec2578182fd5b833567ffffffffffffffff80821115610ed9578384fd5b818601915086601f830112610eec578384fd5b813581811115610efa578485fd5b876020828501011115610f0b578485fd5b6020928301989097509590910135949350505050565b600060208284031215610f32578081fd5b5035919050565b81835281816020850137506000828201602090810191909152601f909101601f19169091010190565b60008151808452815b81811015610f8757602081850181015186830182015201610f6b565b81811115610f985782602083870101525b50601f01601f19169290920160200192915050565b60006040820160018060a01b03808616845260206040818601528286548085526060870191508786528286209450855b81811015610ffb578554851683526001958601959284019201610fdd565b509098975050505050505050565b6020808252825182820181905260009190848201906040850190845b8181101561104a5783516001600160a01b031683529284019291840191600101611025565b50909695505050505050565b60006020808301818452808551808352604092508286019150828160051b870101848801865b83811015610ffb57603f19898403018552815160808151855288820151818a8701526110aa82870182610f62565b838a0151878b0152606093840151151593909601929092525050938601939086019060010161107c565b60408152600080855482600182811c9150808316806110f457607f831692505b602080841082141561111457634e487b7160e01b87526022600452602487fd5b604088018490526060880182801561113357600181146111445761116e565b60ff1987168252828201975061116e565b60008d815260209020895b878110156111685781548482015290860190840161114f565b83019850505b5050878603818901525050505050611187818587610f39565b9695505050505050565b6020808252818101527f4f776e61626c653a2063616c6c6572206973206e6f7420746865206f776e6572604082015260600190565b6020808252601f908201527f426f6f6b20646f6573206e6f7420657869737420696e206c6962726172792100604082015260600190565b60006040820184835260206040818501528185548084526060860191508685528285209350845b8181101561124057845483526001948501949284019201611224565b5090979650505050505050565b8481526080602082015260006112666080830186610f62565b60408301949094525090151560609091015292915050565b600082821015611290576112906112fc565b500390565b6000816112a4576112a46112fc565b506000190190565b600181811c908216806112c057607f821691505b60208210811415610af157634e487b7160e01b600052602260045260246000fd5b60006000198214156112f5576112f56112fc565b5060010190565b634e487b7160e01b600052601160045260246000fdfea26469706673582212203dca0d352fe5e827095446afdfac9405179455ab04b2359e3c9a617dad2f7f5964736f6c63430008040033608060405234801561001057600080fd5b506104e4806100206000396000f3fe608060405234801561001057600080fd5b50600436106100415760003560e01c806311f250381461004657806345244a861461006d578063bed34bba14610080575b600080fd5b610059610054366004610241565b610093565b604051901515815260200160405180910390f35b61005961007b366004610354565b610109565b61005961008e3660046102f3565b610161565b6000805b82518110156100fd578281815181106100c057634e487b7160e01b600052603260045260246000fd5b60200260200101516001600160a01b0316846001600160a01b031614156100eb576001915050610103565b806100f581610471565b915050610097565b50600090505b92915050565b6000805b82518110156100fd5782818151811061013657634e487b7160e01b600052603260045260246000fd5b602002602001015184141561014f576001915050610103565b8061015981610471565b91505061010d565b60008160405160200161017491906103e3565b604051602081830303815290604052805190602001208360405160200161019b91906103e3565b6040516020818303038152906040528051906020012014905092915050565b80356001600160a01b03811681146101d157600080fd5b919050565b600082601f8301126101e6578081fd5b813567ffffffffffffffff81111561020057610200610498565b610213601f8201601f191660200161041c565b818152846020838601011115610227578283fd5b816020850160208301379081016020019190915292915050565b60008060408385031215610253578182fd5b61025c836101ba565b915060208084013567ffffffffffffffff811115610278578283fd5b8401601f81018613610288578283fd5b803561029b6102968261044d565b61041c565b80828252848201915084840189868560051b87010111156102ba578687fd5b8694505b838510156102e3576102cf816101ba565b8352600194909401939185019185016102be565b5080955050505050509250929050565b60008060408385031215610305578182fd5b823567ffffffffffffffff8082111561031c578384fd5b610328868387016101d6565b9350602085013591508082111561033d578283fd5b5061034a858286016101d6565b9150509250929050565b60008060408385031215610366578182fd5b8235915060208084013567ffffffffffffffff811115610384578283fd5b8401601f81018613610394578283fd5b80356103a26102968261044d565b80828252848201915084840189868560051b87010111156103c1578687fd5b8694505b838510156102e35780358352600194909401939185019185016103c5565b60008251815b8181101561040357602081860181015185830152016103e9565b818111156104115782828501525b509190910192915050565b604051601f8201601f1916810167ffffffffffffffff8111828210171561044557610445610498565b604052919050565b600067ffffffffffffffff82111561046757610467610498565b5060051b60200190565b600060001982141561049157634e487b7160e01b81526011600452602481fd5b5060010190565b634e487b7160e01b600052604160045260246000fdfea2646970667358221220fe747731607a28b4a71048d601ac697fd1ab38083b5aed555398c7f556d335fb64736f6c63430008040033",
  "linkReferences": {},
  "deployedLinkReferences": {}
}